{
  "address": "0x5FbDB2315678afecb367f032d93F642f64180aa3",
  "abi": [
    {
      "inputs": [],
      "stateMutability": "nonpayable",
      "type": "constructor"
    },
    {
      "inputs": [],
      "name": "getCounter",
      "outputs": [
        {
          "internalType": "uint64",
          "name": "",
          "type": "uint64"
        }
      ],
      "stateMutability": "view",
      "type": "function"
    },
    {
      "inputs": [],
      "name": "increment",
      "outputs": [],
      "stateMutability": "nonpayable",
      "type": "function"
    }
  ],
  "transactionHash": "0xb9c2e6bf6b0662f278843ad09cde75549fc8bd510b77a81d5268e91cbe09fb25",
  "args": [],
  "numDeployments": 1,
  "solcInputHash": "a270705e3dfe647864e77310cad27cd8",
  "bytecode": "0x608060405234801561001057600080fd5b50600080546001600160401b031916905561010f806100306000396000f3fe6080604052348015600f57600080fd5b506004361060325760003560e01c80638ada066e146037578063d09de08a146057575b600080fd5b6000546040805167ffffffffffffffff9092168252519081900360200190f35b605d605f565b005b60008054600191908190607c90849067ffffffffffffffff1660a4565b92506101000a81548167ffffffffffffffff021916908367ffffffffffffffff160217905550565b67ffffffffffffffff81811683821601908082111560d257634e487b7160e01b600052601160045260246000fd5b509291505056fea2646970667358221220ecb2f46dd92e2785afce9174de26d402bccc2c4d9691520c06c62fbeef4c305a64736f6c63430008180033",
  "devdoc": {
    "kind": "dev",
    "methods": {},
    "version": 1
  },
  "userdoc": {
    "kind": "user",
    "methods": {},
    "version": 1
  },
  "storageLayout": {
    "storage": [
      {
        "astId": 3,
        "contract": "contracts/FHECounter.sol:FHECounter",
        "label": "counter",
        "offset": 0,
        "slot": "0",
        "type": "t_uint64"
      }
    ],
    "types": {
      "t_uint64": {
        "encoding": "inplace",
        "label": "uint64",
        "numberOfBytes": "8"
      }
    }
  }
}