{
  "address": "0xe7f1725E7734CE288F8367e1Bb143E90bb3F0512",
  "abi": [
    {
      "anonymous": false,
      "inputs": [
        {
          "indexed": true,
          "internalType": "uint256",
          "name": "capsuleId",
          "type": "uint256"
        },
        {
          "indexed": true,
          "internalType": "address",
          "name": "creator",
          "type": "address"
        },
        {
          "indexed": false,
          "internalType": "uint256",
          "name": "unlockTime",
          "type": "uint256"
        }
      ],
      "name": "CapsuleCreated",
      "type": "event"
    },
    {
      "anonymous": false,
      "inputs": [
        {
          "indexed": true,
          "internalType": "uint256",
          "name": "capsuleId",
          "type": "uint256"
        }
      ],
      "name": "CapsuleRevealed",
      "type": "event"
    },
    {
      "inputs": [],
      "name": "capsuleCount",
      "outputs": [
        {
          "internalType": "uint256",
          "name": "",
          "type": "uint256"
        }
      ],
      "stateMutability": "view",
      "type": "function"
    },
    {
      "inputs": [
        {
          "internalType": "uint256",
          "name": "",
          "type": "uint256"
        }
      ],
      "name": "capsuleDescriptions",
      "outputs": [
        {
          "internalType": "string",
          "name": "",
          "type": "string"
        }
      ],
      "stateMutability": "view",
      "type": "function"
    },
    {
      "inputs": [
        {
          "internalType": "uint256",
          "name": "",
          "type": "uint256"
        }
      ],
      "name": "capsuleTitles",
      "outputs": [
        {
          "internalType": "string",
          "name": "",
          "type": "string"
        }
      ],
      "stateMutability": "view",
      "type": "function"
    },
    {
      "inputs": [
        {
          "internalType": "uint256",
          "name": "",
          "type": "uint256"
        }
      ],
      "name": "capsules",
      "outputs": [
        {
          "internalType": "address",
          "name": "creator",
          "type": "address"
        },
        {
          "internalType": "uint256",
          "name": "unlockTime",
          "type": "uint256"
        },
        {
          "internalType": "bytes",
          "name": "encryptedContent",
          "type": "bytes"
        },
        {
          "internalType": "bool",
          "name": "isRevealed",
          "type": "bool"
        }
      ],
      "stateMutability": "view",
      "type": "function"
    },
    {
      "inputs": [
        {
          "internalType": "string",
          "name": "title",
          "type": "string"
        },
        {
          "internalType": "string",
          "name": "description",
          "type": "string"
        },
        {
          "internalType": "bytes",
          "name": "content",
          "type": "bytes"
        },
        {
          "internalType": "uint256",
          "name": "unlockTime",
          "type": "uint256"
        }
      ],
      "name": "createCapsule",
      "outputs": [
        {
          "internalType": "uint256",
          "name": "",
          "type": "uint256"
        }
      ],
      "stateMutability": "nonpayable",
      "type": "function"
    },
    {
      "inputs": [
        {
          "internalType": "uint256",
          "name": "capsuleId",
          "type": "uint256"
        }
      ],
      "name": "getCapsule",
      "outputs": [
        {
          "internalType": "address",
          "name": "creator",
          "type": "address"
        },
        {
          "internalType": "uint256",
          "name": "unlockTime",
          "type": "uint256"
        },
        {
          "internalType": "bool",
          "name": "isRevealed",
          "type": "bool"
        },
        {
          "internalType": "string",
          "name": "title",
          "type": "string"
        },
        {
          "internalType": "string",
          "name": "description",
          "type": "string"
        }
      ],
      "stateMutability": "view",
      "type": "function"
    },
    {
      "inputs": [
        {
          "internalType": "uint256",
          "name": "capsuleId",
          "type": "uint256"
        }
      ],
      "name": "getEncryptedContent",
      "outputs": [
        {
          "internalType": "bytes",
          "name": "",
          "type": "bytes"
        }
      ],
      "stateMutability": "view",
      "type": "function"
    },
    {
      "inputs": [
        {
          "internalType": "uint256",
          "name": "capsuleId",
          "type": "uint256"
        }
      ],
      "name": "revealCapsule",
      "outputs": [],
      "stateMutability": "nonpayable",
      "type": "function"
    }
  ],
  "transactionHash": "0xcaccabcfac7d1cd0f5ed3dda585ea62357ba32bd71175d5dc88b23873e6136b6",
  "args": [],
  "numDeployments": 1,
  "solcInputHash": "a270705e3dfe647864e77310cad27cd8",
  "bytecode": "0x608060405234801561001057600080fd5b50610b4a806100206000396000f3fe608060405234801561001057600080fd5b50600436106100885760003560e01c8063517bbf461161005b578063517bbf46146101005780638d40e0cd14610123578063b076a4f614610136578063ca586a811461014b57600080fd5b806305dc03941461008d578063162758b1146100a95780631cec9290146100c95780633aac3858146100dc575b600080fd5b61009660005481565b6040519081526020015b60405180910390f35b6100bc6100b7366004610752565b61015e565b6040516100a091906107b1565b6100bc6100d7366004610752565b6101f8565b6100ef6100ea366004610752565b610211565b6040516100a09594939291906107cb565b61011361010e366004610752565b610389565b6040516100a09493929190610818565b6100bc610131366004610752565b61044a565b610149610144366004610752565b6104ef565b005b6100966101593660046108fe565b6105eb565b60036020526000908152604090208054610177906109a2565b80601f01602080910402602001604051908101604052809291908181526020018280546101a3906109a2565b80156101f05780601f106101c5576101008083540402835291602001916101f0565b820191906000526020600020905b8154815290600101906020018083116101d357829003601f168201915b505050505081565b60026020526000908152604090208054610177906109a2565b600081815260016020818152604080842080549381015460038083015460028652848820919095529286208354879687966060968796956001600160a01b0390931694929360ff9092169290918290610269906109a2565b80601f0160208091040260200160405190810160405280929190818152602001828054610295906109a2565b80156102e25780601f106102b7576101008083540402835291602001916102e2565b820191906000526020600020905b8154815290600101906020018083116102c557829003601f168201915b505050505091508080546102f5906109a2565b80601f0160208091040260200160405190810160405280929190818152602001828054610321906109a2565b801561036e5780601f106103435761010080835404028352916020019161036e565b820191906000526020600020905b81548152906001019060200180831161035157829003601f168201915b50505050509050955095509550955095505091939590929450565b60016020819052600091825260409091208054918101546002820180546001600160a01b03909416939192916103be906109a2565b80601f01602080910402602001604051908101604052809291908181526020018280546103ea906109a2565b80156104375780601f1061040c57610100808354040283529160200191610437565b820191906000526020600020905b81548152906001019060200180831161041a57829003601f168201915b5050506003909301549192505060ff1684565b600081815260016020526040902060020180546060919061046a906109a2565b80601f0160208091040260200160405190810160405280929190818152602001828054610496906109a2565b80156104e35780601f106104b8576101008083540402835291602001916104e3565b820191906000526020600020905b8154815290600101906020018083116104c657829003601f168201915b50505050509050919050565b6000818152600160208190526040909120908101544210156105585760405162461bcd60e51b815260206004820152601760248201527f43617073756c65206973207374696c6c206c6f636b656400000000000000000060448201526064015b60405180910390fd5b600381015460ff16156105ad5760405162461bcd60e51b815260206004820152601860248201527f43617073756c6520616c72656164792072657665616c65640000000000000000604482015260640161054f565b60038101805460ff1916600117905560405182907f43b11b8afc40568bfcd43f944ada2e8624e3867caf2121d0569f9374dca0994f90600090a25050565b60004282116106465760405162461bcd60e51b815260206004820152602160248201527f556e6c6f636b2074696d65206d75737420626520696e207468652066757475726044820152606560f81b606482015260840161054f565b600080548180610655836109dc565b9091555060408051608081018252338152602080820187815282840189815260006060850181905286815260019384905294909420835181546001600160a01b0319166001600160a01b0390911617815590519181019190915591519293509160028201906106c49082610a54565b50606091909101516003909101805460ff191691151591909117905560008181526002602052604090206106f88782610a54565b5060008181526003602052604090206107118682610a54565b50604051838152339082907f94c04aecc42f013fcb329d54ab685a53f3a2a84902997bdbb2addc2af8e5b9e39060200160405180910390a395945050505050565b60006020828403121561076457600080fd5b5035919050565b6000815180845260005b8181101561079157602081850181015186830182015201610775565b506000602082860101526020601f19601f83011685010191505092915050565b6020815260006107c4602083018461076b565b9392505050565b60018060a01b0386168152846020820152831515604082015260a0606082015260006107fa60a083018561076b565b828103608084015261080c818561076b565b98975050505050505050565b60018060a01b038516815283602082015260806040820152600061083f608083018561076b565b9050821515606083015295945050505050565b634e487b7160e01b600052604160045260246000fd5b600067ffffffffffffffff8084111561088357610883610852565b604051601f8501601f19908116603f011681019082821181831017156108ab576108ab610852565b816040528093508581528686860111156108c457600080fd5b858560208301376000602087830101525050509392505050565b600082601f8301126108ef57600080fd5b6107c483833560208501610868565b6000806000806080858703121561091457600080fd5b843567ffffffffffffffff8082111561092c57600080fd5b610938888389016108de565b9550602087013591508082111561094e57600080fd5b61095a888389016108de565b9450604087013591508082111561097057600080fd5b508501601f8101871361098257600080fd5b61099187823560208401610868565b949793965093946060013593505050565b600181811c908216806109b657607f821691505b6020821081036109d657634e487b7160e01b600052602260045260246000fd5b50919050565b6000600182016109fc57634e487b7160e01b600052601160045260246000fd5b5060010190565b601f821115610a4f576000816000526020600020601f850160051c81016020861015610a2c5750805b601f850160051c820191505b81811015610a4b57828155600101610a38565b5050505b505050565b815167ffffffffffffffff811115610a6e57610a6e610852565b610a8281610a7c84546109a2565b84610a03565b602080601f831160018114610ab75760008415610a9f5750858301515b600019600386901b1c1916600185901b178555610a4b565b600085815260208120601f198616915b82811015610ae657888601518255948401946001909101908401610ac7565b5085821015610b045787850151600019600388901b60f8161c191681555b5050505050600190811b0190555056fea26469706673582212205904a1244ce8c58b4601e80f774a3477c3cdc834e1d8b1d2568aeefc1eb04b5764736f6c63430008180033",
  "devdoc": {
    "kind": "dev",
    "methods": {},
    "version": 1
  },
  "userdoc": {
    "kind": "user",
    "methods": {},
    "version": 1
  },
  "storageLayout": {
    "storage": [
      {
        "astId": 41,
        "contract": "contracts/TimeCapsule.sol:TimeCapsule",
        "label": "capsuleCount",
        "offset": 0,
        "slot": "0",
        "type": "t_uint256"
      },
      {
        "astId": 46,
        "contract": "contracts/TimeCapsule.sol:TimeCapsule",
        "label": "capsules",
        "offset": 0,
        "slot": "1",
        "type": "t_mapping(t_uint256,t_struct(Capsule)39_storage)"
      },
      {
        "astId": 50,
        "contract": "contracts/TimeCapsule.sol:TimeCapsule",
        "label": "capsuleTitles",
        "offset": 0,
        "slot": "2",
        "type": "t_mapping(t_uint256,t_string_storage)"
      },
      {
        "astId": 54,
        "contract": "contracts/TimeCapsule.sol:TimeCapsule",
        "label": "capsuleDescriptions",
        "offset": 0,
        "slot": "3",
        "type": "t_mapping(t_uint256,t_string_storage)"
      }
    ],
    "types": {
      "t_address": {
        "encoding": "inplace",
        "label": "address",
        "numberOfBytes": "20"
      },
      "t_bool": {
        "encoding": "inplace",
        "label": "bool",
        "numberOfBytes": "1"
      },
      "t_bytes_storage": {
        "encoding": "bytes",
        "label": "bytes",
        "numberOfBytes": "32"
      },
      "t_mapping(t_uint256,t_string_storage)": {
        "encoding": "mapping",
        "key": "t_uint256",
        "label": "mapping(uint256 => string)",
        "numberOfBytes": "32",
        "value": "t_string_storage"
      },
      "t_mapping(t_uint256,t_struct(Capsule)39_storage)": {
        "encoding": "mapping",
        "key": "t_uint256",
        "label": "mapping(uint256 => struct TimeCapsule.Capsule)",
        "numberOfBytes": "32",
        "value": "t_struct(Capsule)39_storage"
      },
      "t_string_storage": {
        "encoding": "bytes",
        "label": "string",
        "numberOfBytes": "32"
      },
      "t_struct(Capsule)39_storage": {
        "encoding": "inplace",
        "label": "struct TimeCapsule.Capsule",
        "members": [
          {
            "astId": 32,
            "contract": "contracts/TimeCapsule.sol:TimeCapsule",
            "label": "creator",
            "offset": 0,
            "slot": "0",
            "type": "t_address"
          },
          {
            "astId": 34,
            "contract": "contracts/TimeCapsule.sol:TimeCapsule",
            "label": "unlockTime",
            "offset": 0,
            "slot": "1",
            "type": "t_uint256"
          },
          {
            "astId": 36,
            "contract": "contracts/TimeCapsule.sol:TimeCapsule",
            "label": "encryptedContent",
            "offset": 0,
            "slot": "2",
            "type": "t_bytes_storage"
          },
          {
            "astId": 38,
            "contract": "contracts/TimeCapsule.sol:TimeCapsule",
            "label": "isRevealed",
            "offset": 0,
            "slot": "3",
            "type": "t_bool"
          }
        ],
        "numberOfBytes": "128"
      },
      "t_uint256": {
        "encoding": "inplace",
        "label": "uint256",
        "numberOfBytes": "32"
      }
    }
  }
}